:107000000C9410390C9422390C94F0390C942239D8
:107010000C9422390C9422390C9422390C94223984
:107020000C9422390C9422390C9422390C94D839BE
:107030000C9422390C94253E0C94513E0C94223928
:107040000C9422390C9422390C9422390C94223954
:107050000C9422392E007061676553697A6520614E
:107060006E6420626C6F636B506F73206469666638
:1070700065720A00546F206D616E792064617461DD
:1070800020666F72207061676553697A650A0062D5
:107090006C6F636B4C656E20646966666572207008
:1070A00061676553697A650A0057726F6E67204D94
:1070B00073674964210A0052657472616E736D6969
:1070C000742C207265666C617368210A00476F74C6
:1070D000206F74686572206D7367547970650A005B
:1070E00052656365697665206669726D7761726560
:1070F0000A00476F74204342206D73670A0057618E
:10710000697420666F72204342206D73670A0054D1
:107110005820626F6F746C6F616465722073657163
:1071200075656E63650A0054696D656F75740A0054
:107130005374617274204170700A00426F6F746CF6
:107140006F616465722073656C6655706461746507
:10715000210A00435243206661696C2C205265620B
:107160006F6F740A00435243204F4B0A00706167EF
:107170006541646472206578636565647320666C3C
:10718000617368206D656D6F72790A005377697459
:10719000636820746F203130306B206D6F64650A36
:1071A0000053776974636820746F2031306B206DF1
:1071B0006F64650A000A41736B53696E204F544136
:1071C00020426F6F746C6F616465722056302E3789
:1071D0002E300A0A00002E012E0206030D04E905D6
:1071E000CA063D070C0B060D210E650F5010C81185
:1071F000931203153416011730181819161B432162
:1072000056250026112D353EC30B08105B11F815CD
:1072100047191D1A1C1BC71C001DB221B623EA000A
:1072200011241FBECFE5D8E0DEBFCDBF11E0A0E640
:10723000B0E001C01D92A133B107E1F70E94663CA6
:107240000C94DC3E0C9400382FB7F8948BB7982F31
:1072500091609BBF82608BBF2FBF83B7826083BF6B
:1072600012BE89B7816089BF8BB780688BBF85B735
:10727000886085BF0895CF93DF9380916000882355
:10728000D9F1F894109260004091F5004093B90054
:107290008091F60096E789278093BA00E6EFF0E048
:1072A000CBEBD0E0A1EBB0E030E022E013C0908166
:1072B0009452818198279883822F8750833030F4AD
:1072C0008C91981711F030E007C031E02F5F3196B4
:1072D00021961196241758F3A22FB0E0FD01EB5030
:1072E000FF4F80819091BB008927A754BF4F8C939B
:1072F0007894832F311181E0DF91CF91089590E050
:1073000041E250E19B01220F331F87FD216077FD91
:1073100002C0B90103C0B901642775279F5F983087
:1073200011F0880FEFCFCB010895CF93DF936FEF6C
:107330007FEFC0E0D0E0FE0184910E947F39BC0164
:107340002196FFE6CE3FDF07B1F780E00E947F394C
:10735000BC0180E00E947F39FE012591349140E01C
:107360002817390709F441E0842FDF91CF91089560
:1073700050E0A0EDB7E019C0949A20E030E005C0DD
:10738000FD013197F1F72F5F3F4F28173907C0F301
:10739000949820E030E005C0FD013197F1F72F5FB0
:1073A0003F4F26173707C0F35F5F541728F3089540
:1073B0001F920F920FB60F9211248F939F9312BEBC
:1073C0008091610090916200019690936200809399
:1073D00061009F918F910F900FBE0F901F90189595
:1073E0001F920F920FB60F9211242F933F934F933A
:1073F0005F936F937F938F939F93AF93BF93EF931D
:10740000FF93F89485EF90E00E94433D882319F0A4
:1074100081E0809360007894FF91EF91BF91AF91EC
:107420009F918F917F916F915F914F913F912F919C
:107430000F900FBE0F901F901895ECEFFFE685910F
:1074400094918151974489F48BE391E70E949E3E89
:1074500080E09AEF0197F1F782E390E062E370E059
:107460004AE00E94B8390E94803F80E391E70E9481
:107470009E3E80E09AEF0197F1F79498F8948BB7CD
:10748000982F91609BBF8D7F8BBFE0E0F0E0099566
:1074900008950E949539882329F085E691E70E9496
:1074A0009E3E089580ED97E061E070E041E00E942B
:1074B000B83983E591E70E949E3EA8952EE088E1C9
:1074C00090E00FB6F894A89581BD0FBE21BDFFCF07
:1074D00080916100909162008153954740F087E26E
:1074E00091E70E949E3E0E94493A0E941D3A0895EB
:1074F0001F93CF93DF93DA0161382FE6720720E004
:10750000820720E0920728F08DE691E70E949E3ED8
:1075100030C0F894E199FECFAB0183E0FB0180938A
:107520005700E89507B600FCFDCFFA0111E0BA015B
:1075300060587F4F8C9111963C91119720E0E901A2
:10754000C80FD11D12960E0110935700E895112413
:107550003296E617F70771F785E0FA018093570036
:10756000E89507B600FCFDCF81E180935700E895D0
:107570007894DF91CF911F910895DC0111969C9131
:10758000119786E7982711969C93119712965C9114
:10759000129742E008C0FD01E20FF31F9452808170
:1075A000982790834F5F8C91242F30E0481798F3F1
:1075B000FD01E20FF31F808185278083F894CD01C0
:1075C00060E00E94823D789408950F931F93DF93AB
:1075D000CF93CDB7DEB765970FB6F894DEBF0FBE79
:1075E000CDBF8FE091E70E949E3E9091B600209122
:1075F000B7003091B8004091A8005091A900609167
:10760000AA007091AB00E091AC00F091AD00A091A8
:10761000AE00B091AF001091B0000091B10084E1D4
:1076200089831A821B8280E18C839D832E833F8312
:10763000188619861A861B864C875D876E877F871A
:10764000E88BF98BAA8BBB8B1C8B0D8BCE01019623
:107650000E94BD3A65960FB6F894DEBF0FBECDBF4F
:10766000CF91DF911F910F910895DF93CF93CDB705
:10767000DEB72B970FB6F894DEBF0FBECDBFFC016F
:10768000A62F662319F4828185FF1CC09181209169
:10769000B6003091B7004091B80054816581768181
:1076A0008AE089839A8380E88B8382E08C832D83B0
:1076B0003E834F83588769877A87AB87CE010196CF
:1076C0000E94BD3A2B960FB6F894DEBF0FBECDBF19
:1076D000CF91DF9108952F923F924F925F926F92D8
:1076E0007F928F929F92AF92BF92CF92DF92EF9252
:1076F000FF920F931F93DF93CF93CDB7DEB7C058A0
:10770000D0400FB6F894DEBF0FBECDBFA090BA0038
:10771000109262001092610080EE90E70E949E3EFF
:10772000BB2400E010E0CC24DD2476012E01089477
:10773000411C511C83EC682E80E0782EB2E02B2E89
:10774000312C260C371C02C0BB24B3940E94683A2B
:107750000E943B398823D1F38091BC008A3C19F008
:107760008DEC90E731C08091BA008A1581F4BB207E
:1077700071F4C114D104E104F10449F00894C10882
:10778000D108E108F10887EB90E70E949E3E8091C6
:10779000BA008A1550F425E72A1520F48A2D81585D
:1077A000843718F489EA90E748C0BB20E1F4909050
:1077B000C30088248091C4009401280F311D203813
:1077C000310529F08FE890E70E949E3EBFCF80915F
:1077D000B900082F10E00B501040C201B101A80100
:1077E0000E94D33E20C08091B900E82FF0E0399785
:1077F000CF01800F911F8138910518F084E790E741
:107800001CC09201200F311FC901B301AF010E94BA
:10781000D33E8091B90090E00997080F191F31E01D
:10782000B31609F093CF8091BB00803209F08CCF62
:107830000038110529F086E590E70E949E3E22C09F
:1078400084E590E70E949E3E949AC701B601A7E0A6
:10785000660F771F881F991FAA95D1F7A2010E9472
:10786000783A0894C11CD11CE11CF11C10926200F2
:10787000109261009498A090BA0089EB90E060E0CB
:107880000E94353BBB2462CF8EEF90E70E949E3E64
:1078900010926200109261000E94683A0E943B3987
:1078A0008823D1F38091BC008B3C51F482EF90E7A8
:1078B0000E949E3E89EB90E060E00E94353B089577
:1078C00089EB90E060E80E94353BE6CF1F9314B748
:1078D000169516951695117014BEA89588E10FB6E9
:1078E000F89481BD11BC0FBED098D89A8AE18A95D0
:1078F000F1F78C9AC89B33C0112389F58CE291E093
:107900006CE271E040E00E94B83988E893E128EC2D
:1079100030E0F9013197F1F70197D9F786E990E066
:1079200066E970E047E00E94B83988E893E128EC06
:1079300030E0F9013197F1F70197D9F78CE291E046
:107940006CE271E040E00E94B83980E197E228ECF7
:1079500030E0F9013197F1F70197D9F707C089E1D4
:1079600090E068EC70E041E00E94B8390E94243950
:1079700080E09BE40E94763E85EB91E70E949E3E6C
:1079800081EA91E70E949E3E80E00E94C33DC89B31
:1079900008C0112331F40E949539882311F00E9408
:1079A0001D3A89E190E068EC70E041E00E94B8394E
:1079B00086EB90E06CEF7FE743E050E00E94CA3E28
:1079C00088EA90E062EF7FE74AE050E00E94CA3E1A
:1079D0000E94E53A0E94443C8CE891E70E949E3E5A
:1079E00081E00E94C33D0E94443C0E946B3B80E0CA
:1079F00090E01F9108958FB9779BFECF8FB10895C6
:107A0000C498C699FECF8FB9779BFECF8FB1C49A29
:107A10000895C498C699FECF80648FB9779BFECF36
:107A20008FB1FB0190E007C080818FB9779BFECFBB
:107A30008FB19F5F31969417B8F3C49A08959C0153
:107A4000C498C699FECF606C6FB9779BFECF8FB19B
:107A5000F90190E006C01FB8779BFECF8FB18193EC
:107A60009F5F9417C0F3C49A0895C498C699FECF37
:107A7000682B6FB9779BFECF8FB11FB8779BFECF76
:107A80008FB1C49A0895CF93DF93EC018BE360EC40
:107A90000E94353D282F90E08F779070892B09F157
:107AA00027FD1FC08FE360E80E94353D482F888383
:107AB0008D33B8F4CE0101966FE30E941F3D8FE332
:107AC00060E80E94353D8FE360E80E94353D982FC5
:107AD0009F779093B500881F8827881F8093B300F5
:107AE00001C018828AE30E94003D86E30E94003DA7
:107AF00084E30E94003D8CE30E94003D8881DF9179
:107B0000CF9108950F931F938C0186E30E94003D4F
:107B10008AE30E94003D8BE30E94003D80ED97E0E8
:107B20000197F1F7F80140814F5F8FE3B8010E94A0
:107B3000093D8AE30E94003D85E30E94003D00E08C
:107B40001AE185E360EC0E94353D8D3061F085E3FC
:107B500060EC0E94353D833131F4812F8A95F1F735
:107B60000F5F083C71F71F910F910895C498C69953
:107B7000FECF8FB9779BFECF8FB16FB9779BFECFCA
:107B80008FB1C49A08951F93CF93DF93182FF89461
:107B9000BC9ABD9ABE98BF9A8B98C49AC79AC5984A
:107BA00080E58DB9C49A982F9A95F1F7C4988A9573
:107BB000F1F7C49A88E78A95F1F780E30E94003DC7
:107BC00088EC90E00197F1F7C5EDD1E7FE018491D3
:107BD0002196FE0164910E94B63D2196F2E7C930DC
:107BE000DF07A1F7112371F0C9E0D2E7FE0184910C
:107BF0002196FE0164910E94B63D2196F2E7CF31B5
:107C0000DF07A1F783E30E94003D80E49FE1019735
:107C1000F1F784E30E94003D85E360EC0E94353D6E
:107C20008D30B9F78EE360EC0E94B63D84E30E948C
:107C3000003D8CE30E94003D80E797E10197F1F75A
:107C40007894DF91CF911F9108951F920F920FB6F4
:107C50000F9211242F938F939F93EF93FF939BB1D8
:107C60002CB1E091A500EF5FEF718091A600E817BD
:107C700011F492E007C09871E093A500F0E0ED5791
:107C8000FF4F20838091A700982B9093A700FF912E
:107C9000EF919F918F912F910F900FBE0F901F909A
:107CA00018951F920F920FB60F9211248F939F93E6
:107CB000EF93FF939091A3008091A400981761F037
:107CC000E091A400EF5FEF71E093A400F0E0ED59C4
:107CD000FF4F80818CB901C05598FF91EF919F9122
:107CE0008F910F900FBE0F901F9018959C0140E050
:107CF00050E084E0220F331F441F551F8A95D1F7AF
:107D000060E072E18AE790E00E94A83E2150304096
:107D100030BD29B988E18AB986E880BD0895089503
:107D20005D9BFECF8CB90895FC0104C05D9BFECF26
:107D300031968CB980818823C9F7089503C05D9B73
:107D4000FECF2CB9FC01019624912223C1F708959E
:107D5000A1E21A2EAA1BBB1BFD010DC0AA1FBB1F4F
:107D6000EE1FFF1FA217B307E407F50720F0A21BC1
:107D7000B30BE40BF50B661F771F881F991F1A942E
:107D800069F760957095809590959B01AC01BD0158
:107D9000CF010895FB01DC0102C005900D92415016
:107DA0005040D8F70895FB01DC0102C001900D920C
:0C7DB00041505040D8F70895F894FFCFE0
:107F0000FF920F931F93CF93DF93F894949AC0E05E
:107F1000D0E7F3E0FF2E01E015E0FE01F0925700FC
:107F2000E89507B600FCFDCFAE0140505047BE01BA
:107F3000DE01A058BF46FA0185919491FB010C0126
:107F400000935700E89511244E5F5F4F6E5F7F4F9F
:107F50004A175B0781F7FE0110935700E89507B6B3
:107F600000FCFDCFC058DF4FFFE7C030DF07A9F6A8
:107F7000E0E8FFE683E080935700E89507B600FC51
:107F8000FDCF81E180935700E89594982EE088E139
:107F900090E00FB6F894A89581BD0FBE21BDFFCF2C
:027FF00000117E
:0A7FF200484D6178303030303030F7
:037FFC0034173007
:040000030000700089
:00000001FF
