:107000000C9420390C94003B0C9432390C94323996
:107010000C9432390C9432390C9432390C94323944
:107020000C9432390C9432390C9432390C94323934
:107030000C9432390C9432390C9432390C94323924
:107040000C942D3B0C9432390C94CB3D0C94F93DAF
:107050000C9432390C9432390C9432390C94323904
:107060000C9432390C9432392E0070616765536983
:107070007A6520616E6420626C6F636B506F732061
:107080006469666665720A00546F206D616E7920CE
:107090006461746120666F72207061676553697AFC
:1070A000650A00626C6F636B4C656E20646966668E
:1070B0006572207061676553697A650A0057726F5F
:1070C0006E67204D73674964210A005265747261CE
:1070D0006E736D69742C207265666C617368210A29
:1070E00000476F74206F74686572206D7367547900
:1070F00070650A00476F74204342206D73670A0071
:1071000052656365697665206669726D776172653F
:107110000A00476F74204342206D73670A0057616D
:10712000697420666F72204342206D73670A0054B1
:107130005820626F6F746C6F616465722073657143
:1071400075656E63650A0054696D656F75740A0034
:107150005374617274204170700A00426F6F746CD6
:107160006F616465722073656C66557064617465E7
:10717000210A00435243206661696C2C20526562EB
:107180006F6F740A00435243204F4B0A00706167CF
:107190006541646472206578636565647320666C1C
:1071A000617368206D656D6F72790A005377697439
:1071B000636820746F203130306B206D6F64650A16
:1071C000000A41736B53696E204F544120426F6F28
:1071D000746C6F616465722056302E372E300A0A47
:1071E0000053776974636820746F2031306B206DB1
:1071F0006F64650A000B08105B11F81547191D1A1A
:107200001C1BC71C001DB221B623EA002E012E0252
:1072100006030D04E905CA063D070C0B060D210EF9
:10722000650F5010C811931203153416011730184A
:107230001819161B432156250026112D353EC30073
:1072400011241FBECFEFD8E0DEBFCDBF21E0A0E00C
:10725000B1E001C01D92A13DB207E1F70E948A3E54
:107260000C942E3F0C94003898E09B01660F771F1A
:1072700087FD616037FF04C021E2622720E17227A9
:10728000880F915091F7CB0108959FB7F89485B777
:10729000282F216025BF826085BF9FBF85B5826092
:1072A00085BD16BCEEE6F0E080818160808381E0E0
:1072B0008DBB82E0809369000895EF92FF920F9357
:1072C0001F93CF93DF938B019C0101388FE6180742
:1072D0002105310550F08DE891E7DF91CF911F91A5
:1072E0000F91FF90EF900C947B3EF894F999FECFAC
:1072F000D80183E0F80180935700E89507B600FCB9
:10730000FDCF60E070E0C1E0FA01D0814E5F5F4FD9
:107310007B01EA0EFB1ECA010197FC01808190E00F
:10732000982F88278D0F911DF7010C01C0935700EE
:10733000E89511246E5F7F4F6038710529F785E06D
:10734000F80180935700E89507B600FCFDCF81E176
:1073500080935700E8957894DF91CF911F910F911A
:10736000FF90EF90089580910201882309F43FC0B7
:10737000F8941092020160919501609359019091E7
:10738000960186E7892780935A01E6E9F1E020E03B
:1073900030E050E082E0820F8617C0F49191945261
:1073A00040819427D901A75ABE4F12969C934BEF68
:1073B000420F433038F4D901AF5ABE4F4C91941369
:1073C00004C051E02F5F3F4FE5CF50E090E0FC015B
:1073D000E75AFE4FDC01AB56BE4F9C9180915B019A
:1073E00089278083789481E0511101C080E008955D
:1073F000DC0111968C91119796E7982711969C9332
:10740000119712962C91129782E03C91E82FF0E0B0
:10741000EA0FFB1F831730F4945230819327908337
:107420008F5FF3CF808182278083F89460E0CD0165
:107430000E94DC3C78940895CF93DF93CDB7DEB7FC
:107440002B970FB6F894DEBF0FBECDBFFC018AE0CC
:10745000898381818A8380E88B8382E08C83A6E59F
:10746000B1E08C918D8311968C9111978E83129639
:107470008C918F83848188878581898786818A879B
:107480006B87CE0101960E94F8392B960FB6F894BF
:10749000DEBF0FBECDBFDF91CF910895CF93DF93B5
:1074A000C0E0D0E06FEF7FEFFE0184910E9434399D
:1074B000BC012196CE3FFFE6DF07B1F780E00E94D6
:1074C0003439BC0180E00E9434399C01FE014591B1
:1074D000549181E04217530709F080E0DF91CF918A
:1074E0000895611103C0FC01228125FD0C941C3A12
:1074F0000895CF93DF93CDB7DEB765970FB6F894B5
:10750000DEBF0FBECDBF8FE291E70E947B3E84E1DC
:1075100089831A821B8280E18C83E6E5F1E0808119
:107520008D8381818E8382818F83188619861A8646
:107530001B86E8E4F1E080818C8781818D878281E0
:107540008E8783818F878481888B8581898B8681D3
:107550008A8B87818B8B80858C8B81858D8BCE01EF
:1075600001960E94F83965960FB6F894DEBF0FBEFB
:10757000CDBFDF91CF910895FC0190E0941701F108
:107580005C9A20E030E02E173F0749F0AFECB7E0FF
:107590001197F1F700C000002F5F3F4FF4CF5C98C8
:1075A00020E030E02617370749F0AFECB7E011973D
:1075B000F1F700C000002F5F3F4FF4CF9F5FDECF99
:1075C00008950E944E3A882321F085E891E70C94B3
:1075D0007B3E41E061E070E080ED97E00E94BC3AC4
:1075E00083E791E70E947B3EA8959EE088E10FB675
:1075F000F894A895809360000FBE90936000FFCF31
:107600001F920F920FB60F9211242F933F934F9317
:107610005F936F937F938F939F93AF93BF93EF93FA
:10762000FF93F89485E991E00E94103D882319F0BA
:1076300081E0809302017894FF91EF91BF91AF9127
:107640009F918F917F916F915F914F913F912F917A
:107650000F900FBE0F901F9018951F920F920FB6AC
:107660000F9211248F939F9316BC809100019091EB
:107670000101019690930101809300019F918F91E8
:107680000F900FBE0F901F901895ECEFFFE68591BD
:1076900094918131974499F48BE591E70E947B3E68
:1076A0008FEF99EF0197F1F700C000004AE062E325
:1076B00070E082E390E00E94BC3A0E94803F80E547
:1076C00091E70E947B3EEFEFF9EF3197F1F700C0B1
:1076D00000005C98F89485B7982F916095BF8D7FD6
:1076E00085BFE0E0F0E009948091000190910101F4
:1076F0008133954740F087E491E70E947B3E0E94EA
:10770000E13A0C94453B08958EE191E70E947B3E5F
:1077100010920101109200010E94743B0E94B33943
:107720008823D1F380915C018B3C49F482E191E79D
:107730000E947B3E60E089E591E00C94713A60E83C
:1077400089E591E00E941C3AE7CFCF93DF93CDB754
:10775000DEB7C058D1090FB6F894DEBF0FBECDBF5B
:10776000E0905A01109201011092000180E091E72F
:107770000E947B3E812C912C540100E010E0F12C02
:107780000E94743B0E94B3398823D1F380915C013D
:107790008A3C79F08B3C51F484EF90E70E947B3E69
:1077A00060E089E591E00E94713AEACF81EE90E7CE
:1077B00032C080915A018E1110C0F1100EC0811498
:1077C0009104A104B10449F081E0881A9108A1084C
:1077D000B1088BEC90E70E947B3E80915A018E1598
:1077E00050F485E78E1520F48FE78E0D843718F45A
:1077F0008DEB90E749C0F1101EC08091630190E0CD
:10780000982F882720916401820F911D803891055F
:1078100029F083EA90E70E947B3EB2CF00915901A4
:1078200010E00B501109A80165E671E0CE01019648
:107830000E94253F1DC04091590150E04950510917
:107840006A01C00ED11E81E8C816D10418F088E87C
:1078500090E71AC063E671E081E090E08C0F9D1F15
:10786000800F911F0E94253F81E08601F81288CF8A
:1078700080915B01803219F0FF24F39481CF0038AE
:10788000110529F08AE690E70E947B3E78CF88E6D2
:1078900090E70E947B3E5C9AC501B40127E0660F29
:1078A000771F881F991F2A95D1F7AE014F5F5F4F51
:1078B0000E945D398FEF881A980AA80AB80A1092B8
:1078C0000101109200015C98E0905A0160E089E5A6
:1078D00091E00E94713A53CF8EBD0DB407FEFDCFEB
:1078E0008EB508952A982C99FECF0E946C3C2A9A56
:1078F0000895EF92FF920F931F93CF93DF9300D0E1
:10790000CDB7DEB7142F2A982C99FECF80646983F7
:107910007A830E946C3C6981062FE62E7A81F72ECD
:107920008E2D801B811730F4F70181917F010E9419
:107930006C3CF6CF2A9A0F900F90DF91CF911F9158
:107940000F91FF90EF900895CF92DF92FF920F93E7
:107950001F93CF93DF931F92CDB7DEB7182F042F5D
:107960002A982C99FECF862F806C99830E946C3CBC
:10797000F12EC12E9981D92E8C2D8F19801738F4B4
:1079800080E00E946C3CF60181936F01F5CF2A9A4A
:107990000F90DF91CF911F910F91FF90DF90CF90CB
:1079A00008952A982C99FECF862B0E946C3C80E08B
:1079B0000E946C3C2A9A0895CF93DF93EC0186E3F2
:1079C0000E94723C8AE30E94723C8BE30E94723CEC
:1079D0008FEC97E00197F1F700C0000048814F5FFE
:1079E000BE018FE30E94793C8AE30E94723C85E3EA
:1079F0000E94723CC8EC60EC85E30E94D13C8D3063
:107A000061F060EC85E30E94D13C833131F49AE16E
:107A10009A95F1F700C0C15071F7DF91CF910895A9
:107A2000CF93DF93EC0160EC8BE30E94D13C982F65
:107A30009F7749F087FD07C060E88FE30E94D13C43
:107A400088838D3310F0188217C0482F6FE3CE0162
:107A500001960E94A43C60E88FE30E94D13C60E85C
:107A60008FE30E94D13C982F9F7790935501881FF8
:107A70008827881F809353018AE30E94723C86E323
:107A80000E94723C84E30E94723C8CE30E94723C30
:107A90008881DF91CF910895CF93DF931F92CDB767
:107AA000DEB72A982C99FECF69830E946C3C6981CD
:107AB000862F0E946C3C2A9A0F90DF91CF910895F7
:107AC0001F93CF93DF93182FF894229A239A249828
:107AD000259A52982A9A2D9A2B9880E58CBD2A9A3D
:107AE00080E58A95F1F72A9890E59A95F1F72A9A18
:107AF000E8E7EA95F1F780E30E94723C87EC90E0BA
:107B00000197F1F700C00000CBE0D2E7FE0131960B
:107B10006491FE0184910E944C3D2296F2E7CF339E
:107B2000DF07A1F711110AC083E30E94723C8FE3C3
:107B30009FE10197F1F700C000000FC0C5EFD1E74A
:107B4000FE0131966491FE0184910E944C3D229683
:107B5000F2E7CB30DF07A1F7E7CF84E30E94723C66
:107B600060EC85E30E94D13C8D30B9F760EC8EE388
:107B70000E944C3D84E30E94723C8CE30E94723C64
:107B80008FE697E10197F1F700C000007894DF914C
:107B9000CF911F9108951F920F920FB60F9211244B
:107BA0002F938F939F93EF93FF938091C0009091B9
:107BB000C6008C71E0910501EF5FEF712091040127
:107BC000E21739F0E0930501F0E0E85FFE4F9083A3
:107BD00001C082E090910301892B80930301FF9102
:107BE000EF919F918F912F910F900FBE0F901F904B
:107BF00018951F920F920FB60F9211248F939F9397
:107C0000EF93FF939091070180910601981769F017
:107C1000E0910601EF5FEF71E0930601F0E0E85DAF
:107C2000FE4F80818093C60005C08091C1008F7D8A
:107C30008093C100FF91EF919F918F910F900FBEA4
:107C40000F901F9018951092070110920601109244
:107C500005011092040197FF03C022E02093C000A9
:107C600090789093C5008093C40088E98093C10008
:107C700086E08093C20008959091050180910401EF
:107C80009817A9F0909104019F5F9F71E92FF0E090
:107C9000E85FFE4F208180910301909304011092D0
:107CA000030190E0982F8827820F911D089580E0AE
:107CB00091E00895909107019F5F9F7120910601C7
:107CC0009217E1F3E92FF0E0E85DFE4F8083909397
:107CD00007018091C10080628093C1000895CF9315
:107CE000DF93EC018991882319F00E945A3EFACF64
:107CF000DF91CF910895CF93DF93FC018491EF0141
:107D00002196882321F00E945A3EFE01F7CFDF9191
:107D1000CF910895C4B7C3FBCC27C0F914BEA89572
:107D20000FB6F894A89580916000886180936000F8
:107D3000109260000FBE2098289A2AE12A95F1F748
:107D400000C0549A189B33C0C11131C040E06CE2AE
:107D500071E08CE291E00E94BC3A8FEF94E32CE05A
:107D6000815090402040E1F700C0000047E066E904
:107D700070E086E990E00E94BC3A8FEF94E32CE03B
:107D8000815090402040E1F700C0000040E06CE2EC
:107D900071E08CE291E00E94BC3A8FEF99E628E115
:107DA000815090402040E1F700C0000007C041E052
:107DB00068EC70E089E190E00E94BC3A0E9445398D
:107DC00081EE91E70E947B3E80E00E94603D88E06A
:107DD00090E00E94233E81EC91E70E947B3E189B3D
:107DE00007C0C11105C00E944E3A81110E94453B57
:107DF00041E068EC70E089E190E00E94BC3A43E029
:107E000050E06CEF7FE786E591E00E941C3F4AE07E
:107E100050E062EF7FE788E491E00E941C3F0E94FF
:107E2000793A0E94843B8CEA91E70E947B3E81E094
:107E30000E94603D0E94A53BFB01DC0102C0059051
:107E40000D9241505040D8F70895FB01DC0102C06B
:107E500001900D9241505040D8F70895F894FFCF0B
:107F0000F8945C9A80E090E743E051E065E0FC0182
:107F100040935700E89507B600FCFDCF20E030E025
:107F2000EC01D057F901EC0FFD1FA591B491F901B7
:107F3000E80FF91F0D0150935700E89511242E5FAB
:107F40003F4F2038310571F7FC0160935700E895E9
:107F500007B600FCFDCF80589F4F8115FFE79F07B4
:107F6000B1F6E0E8FFE683E080935700E89507B6B6
:107F700000FCFDCF81E180935700E8955C989EE07E
:107F800088E10FB6F894A895809360000FBE909397
:047F90006000FFCFBF
:027FF000123449
:0A7FF200444D59313233343536372F
:037FFC004567894D
:040000030000700089
:00000001FF
