:107000000C941A390C94F13A0C942C390C942C39B8
:107010000C942C390C942C390C942C390C942C395C
:107020000C942C390C942C390C942C390C942C394C
:107030000C942C390C942C390C942C390C942C393C
:107040000C941E3B0C942C390C94B03D0C94DE3DFA
:107050000C942C390C942C390C942C390C942C391C
:107060000C942C390C942C392E007061676553698F
:107070007A6520616E6420626C6F636B506F732061
:107080006469666665720A00546F206D616E7920CE
:107090006461746120666F72207061676553697AFC
:1070A000650A00626C6F636B4C656E20646966668E
:1070B0006572207061676553697A650A0057726F5F
:1070C0006E67204D73674964210A005265747261CE
:1070D0006E736D69742C207265666C617368210A29
:1070E00000476F74206F74686572206D7367547900
:1070F00070650A0052656365697665206669726D20
:10710000776172650A00476F74204342206D736790
:107110000A005761697420666F72204342206D73C4
:10712000670A00545820626F6F746C6F61646572F7
:107130002073657175656E63650A0054696D656FCE
:1071400075740A005374617274204170700A0042B1
:107150006F6F746C6F616465722073656C665570D7
:1071600064617465210A00435243206661696C2C96
:10717000205265626F6F740A00435243204F4B0ADE
:107180000070616765416464722065786365656459
:107190007320666C617368206D656D6F72790A008B
:1071A00053776974636820746F203130306B206DC1
:1071B0006F64650A000A41736B53696E204F544136
:1071C00020426F6F746C6F616465722056302E3789
:1071D0002E300A0A0053776974636820746F203177
:1071E000306B206D6F64650A000B08105B11F81599
:1071F00047191D1A1C1BC71C001DB221B623EA002B
:107200002E012E0206030D04E905CA063D070C0BEC
:10721000060D210E650F5010C81193120315341678
:10722000011730181819161B432156250026112D59
:10723000353EC30011241FBECFEFD8E0DEBFCDBF67
:1072400021E0A0E0B1E001C01D92A13DB207E1F74D
:107250000E946A3E0C940D3F0C94003898E09B010C
:10726000660F771F87FD616037FF04C021E2622748
:1072700020E17227880F915091F7CB0108959FB7B5
:10728000F89485B7282F216025BF826085BF9FBFF6
:1072900085B5826085BD16BCEEE6F0E08081816038
:1072A000808381E08DBB82E08093690008950F9315
:1072B0001F93CF93DF9361382FE672078105910505
:1072C00040F081E891E7DF91CF911F910F910C94ED
:1072D0005B3EF894F999FECFEB0123E0FB0120938C
:1072E0005700E89507B600FCFDCF20E030E011E044
:1072F000DA01A20FB31F0C91F901EC0FFD1F1196DB
:10730000AC91B0E0BA2FAA27A00FB11D0D011093C8
:107310005700E89511242E5F3F4F2038310541F783
:1073200025E0FB0120935700E89507B600FCFDCF50
:1073300081E180935700E8957894DF91CF911F9178
:107340000F910895CF93DF93809102018823E1F19B
:10735000F894109202015091950150935901809137
:10736000960196E7892780935A01E6E9F1E0ABE5BB
:10737000B1E080E090E030E042E0480F451798F43B
:1073800021912452608126272D936BEF680F633083
:1073900038F4EC01CF5ADE4F3881231303C031E0BB
:1073A0000196EACF30E0842F90E0FC01E75AFE4FCF
:1073B000DC01AB56BE4F8C9190915B018927808395
:1073C000789481E0311101C080E0DF91CF91089580
:1073D000FC01218136E723272183428132E0FC0131
:1073E0005081E32FF0E0E80FF91F351730F42452F5
:1073F0005081252720833F5FF2CF208124272083DF
:10740000F89460E00E94C13C78940895CF93DF9394
:10741000CDB7DEB72B970FB6F894DEBF0FBECDBF4A
:10742000FC018AE0898381818A8380E88B8382E002
:107430008C83809156018D83809157018E8380913A
:1074400058018F83848188878581898786818A878F
:107450006B87CE0101960E94E8392B960FB6F894FF
:10746000DEBF0FBECDBFDF91CF910895CF93DF93E5
:10747000C0E0D0E06FEF7FEFFE0184910E942E39D3
:10748000BC012196CE3FFFE6DF07B1F780E00E9406
:107490002E39BC0180E00E942E39FE0125913491E5
:1074A00041E02817390709F040E0842FDF91CF91A0
:1074B0000895611103C0FC01228125FD0C94063A58
:1074C0000895CF93DF93CDB7DEB765970FB6F894E5
:1074D000DEBF0FBECDBF83E291E70E945B3E84E139
:1074E00089831A821B8280E18C83809156018D836F
:1074F000809157018E83809158018F831886198659
:107500001A861B86809148018C87809149018D875E
:1075100080914A018E8780914B018F8780914C0129
:10752000888B80914D01898B80914E018A8B80914F
:107530004F018B8B809150018C8B809151018D8BF1
:10754000CE0101960E94E83965960FB6F894DEBF29
:107550000FBECDBFDF91CF91089550E0541701F1D8
:107560005C9A20E030E02817390749F0EFECF7E0AB
:107570003197F1F700C000002F5F3F4FF4CF5C98C8
:1075800020E030E02617370749F0EFECF7E03197BD
:10759000F1F700C000002F5F3F4FF4CF5F5FDECFF9
:1075A00008950E94363A882321F089E791E70C94E8
:1075B0005B3E41E061E070E080ED97E00E94AD3A13
:1075C00087E691E70E945B3EA8952EE088E190E077
:1075D0000FB6F894A895809360000FBE20936000CA
:1075E000FFCF1F920F920FB60F9211242F933F934C
:1075F0004F935F936F937F938F939F93AF93BF93BB
:10760000EF93FF93F89485E991E00E94F53C88237D
:1076100019F081E0809302017894FF91EF91BF917E
:10762000AF919F918F917F916F915F914F913F911A
:107630002F910F900FBE0F901F9018951F920F92D1
:107640000FB60F9211248F939F9316BC8091000167
:1076500090910101019690930101809300019F9107
:107660008F910F900FBE0F901F901895ECEFFFE6D3
:10767000859194918131974499F48FE491E70E9428
:107680005B3E8FEF99EF0197F1F700C000004AE0F1
:1076900062E370E082E390E00E94AD3A0E94803F96
:1076A00084E491E70E945B3EEFEFF9EF3197F1F749
:1076B00000C000005C98F89485B7982F916095BF42
:1076C0008D7F85BFE0E0F0E009948091000190910A
:1076D00001018133954740F08BE391E70E945B3EC7
:1076E0000E94D13A0C94363B089582E191E70E94C2
:1076F0005B3E10920101109200010E94653B0E94C6
:10770000A2398823D1F380915C018B3C49F486E057
:1077100091E70E945B3E60E089E591E00C94593A64
:1077200060E889E591E00E94063AE7CFCF93DF93C6
:10773000CDB7DEB7C058D1090FB6F894DEBF0FBE83
:10774000CDBF80905A01109201011092000184EF88
:1077500090E70E945B3EC12CD12C760100E010E046
:10776000912C0E94653B0E94A2398823D1F380911D
:107770005C018A3C19F081EE90E732C080915A0199
:10778000881110C091100EC0C114D104E104F1049D
:1077900049F081E0C81AD108E108F1088BEC90E7C4
:1077A0000E945B3E80915A01881550F485E7881548
:1077B00020F48FE7880D843718F48DEB90E749C0EB
:1077C00091101EC08091630190E0982F882720912E
:1077D0006401820F911D8038910529F083EA90E7BA
:1077E0000E945B3EBECF0091590110E00B50110981
:1077F000A80165E671E0CE0101960E94043F1DC01C
:107800004091590150E0495051095A01A00EB11E52
:1078100081E8A816B10418F088E890E71AC063E67A
:1078200071E081E090E08C0F9D1F800F911F0E94FE
:10783000043F81E08501981294CF80915B018032F2
:1078400019F0992493948DCF0038110529F08AE618
:1078500090E70E945B3E84CF88E690E70E945B3E03
:107860005C9AC701B60127E0660F771F881F991F32
:107870002A95D1F7AE014F5F5F4F0E9457398FEFC6
:10788000C81AD80AE80AF80A1092010110920001F9
:107890005C9880905A0160E089E591E00E94593A35
:1078A0005FCF8EBD0DB407FEFDCF8EB508952A982B
:1078B0002C99FECF0E94513C2A9A0895EF92FF9294
:1078C0000F931F93CF93DF9300D0CDB7DEB7142F64
:1078D0002A982C99FECF806469837A830E94513C58
:1078E0006981062FE62E7A81F72E8E2D801B811757
:1078F00030F4F70181917F010E94513CF6CF2A9A22
:107900000F900F90DF91CF911F910F91FF90EF900B
:107910000895CF92DF92FF920F931F93CF93DF933F
:107920001F92CDB7DEB7182F042F2A982C99FECFBF
:10793000862F806C99830E94513CF12EC12E998133
:10794000D92E8C2D8F19801738F480E00E94513C7D
:10795000F60181936F01F5CF2A9A0F90DF91CF91B5
:107960001F910F91FF90DF90CF9008952A982C9946
:10797000FECF862B0E94513C80E00E94513C2A9A07
:107980000895CF93DF93EC0186E30E94573C8AE38E
:107990000E94573C8BE30E94573C8FEC97E0019785
:1079A000F1F700C0000048814F5FBE018FE30E94E5
:1079B0005E3C8AE30E94573C85E30E94573CC8EC3A
:1079C00060EC85E30E94B63C8D3061F060EC85E3AD
:1079D0000E94B63C833131F49AE19A95F1F700C0E8
:1079E000C15071F7DF91CF910895CF93DF93EC01F0
:1079F00060EC8BE30E94B63C982F9F7709F187FDDE
:107A00001FC060E88FE30E94B63C88838D33C0F4CA
:107A1000482F6FE3CE0101960E94893C60E88FE316
:107A20000E94B63C60E88FE30E94B63C982F9F7797
:107A300090935501881F8827881F8093530101C0A8
:107A400018828AE30E94573C86E30E94573C84E3F5
:107A50000E94573C8CE30E94573C8881DF91CF9174
:107A60000895CF93DF931F92CDB7DEB72A982C9954
:107A7000FECF69830E94513C6981862F0E94513C50
:107A80002A9A0F90DF91CF9108951F93CF93DF93A0
:107A9000182FF894229A239A2498259A52982A9A71
:107AA0002D9A2B9880E58CBD2A9A80E58A95F1F76E
:107AB0002A9890E59A95F1F72A9AE8E7EA95F1F77E
:107AC00080E30E94573C87EC90E00197F1F700C0FB
:107AD0000000CFEFD1E7FE0131966491FE01849161
:107AE0000E94313D2296F2E7C333DF07A1F711115F
:107AF0000AC083E30E94573C8FE39FE10197F1F7AF
:107B000000C000000FC0C9EED1E7FE0131966491BC
:107B1000FE0184910E94313D2296F1E7CF3FDF07BD
:107B2000A1F7E7CF84E30E94573C60EC85E30E9415
:107B3000B63C8D30B9F760EC8EE30E94313D84E3B2
:107B40000E94573C8CE30E94573C8FE697E10197D7
:107B5000F1F700C000007894DF91CF911F91089554
:107B60001F920F920FB60F9211242F938F939F9312
:107B7000EF93FF938091C0009091C6008871E091CF
:107B80000501EF5FEF7120910401E21739F0E093F6
:107B90000501F0E0E85FFE4F908301C082E0909124
:107BA0000301982B90930301FF91EF919F918F9187
:107BB0002F910F900FBE0F901F9018951F920F924C
:107BC0000FB60F9211248F939F93EF93FF93909191
:107BD000070180910601981769F0E0910601EF5FB7
:107BE000EF71E0930601F0E0E85DFE4F8081809345
:107BF000C60005C08091C1008F7D8093C100FF91B8
:107C0000EF919F918F910F900FBE0F901F9018953D
:107C100010920701109206011092050110920401C2
:107C200097FF04C022E02093C0009F779093C50087
:107C30008093C40088E98093C10086E08093C200ED
:107C400008959091050180910401981781F0E091C9
:107C50000401EF5FEF71E0930401F0E0E85FFE4F95
:107C60008081909103011092030190E0089580E0DB
:107C700091E00895909107019F5F9F712091060107
:107C80009217E1F3E92FF0E0E85DFE4F80839093D7
:107C900007018091C10080628093C1000895CF9355
:107CA000DF93EC018991882319F00E943A3EFACFC4
:107CB000DF91CF910895CF93DF93FC018491EF0181
:107CC0002196882321F00E943A3EFE01F7CFDF91F2
:107CD000CF910895C4B7C3FBCC27C0F914BEA895B3
:107CE00088E10FB6F89480936000109260000FBE98
:107CF0002098289A2AE12A95F1F700C0549A189BF7
:107D000033C0C11131C040E06CE271E08CE291E01F
:107D10000E94AD3A8FEF94E32CE0815090402040D8
:107D2000E1F700C0000047E066E970E086E990E016
:107D30000E94AD3A8FEF94E32CE0815090402040B8
:107D4000E1F700C0000040E06CE271E08CE291E0FD
:107D50000E94AD3A8FEF99E628E181509040204093
:107D6000E1F700C0000007C041E068EC70E089E185
:107D700090E00E94AD3A0E943F3985ED91E70E9464
:107D80005B3E80E00E94453D88E090E00E94083E16
:107D900085EB91E70E945B3E189B07C0C11105C0AF
:107DA0000E94363A81110E94363B41E068EC70E057
:107DB00089E190E00E94AD3A43E050E06CEF7FE74C
:107DC00086E591E00E94FB3E4AE050E062EF7FE7EB
:107DD00088E491E00E94FB3E0E94613A0E94753B5C
:107DE00080EA91E70E945B3E81E00E94453D0E944F
:107DF000753B0E94963BFB01DC0102C005900D9291
:107E000041505040D8F70895FB01DC0102C00190B9
:0E7E10000D9241505040D8F70895F894FFCFDE
:107F0000F8945C9A80E090E7A3E0B1E0C5E0FC0162
:107F1000A0935700E89507B600FCFDCF20E030E0C5
:107F2000BC017057F901E60FF71F45915491F90113
:107F3000E80FF91F0A01B0935700E89511242E5F4E
:107F40003F4F2038310571F7FC01C0935700E89589
:107F500007B600FCFDCF80589F4F8115FFE79F07B4
:107F6000B1F6E0E8FFE683E080935700E89507B6B6
:107F700000FCFDCF81E180935700E8955C982EE0EE
:107F800088E190E00FB6F894A895809360000FBE4A
:067F900020936000FFCF0A
:027FF000000A85
:0A7FF200484D527941424344454690
:037FFC00123456E6
:040000030000700089
:00000001FF
